{
  "_format": "hh-sol-artifact-1",
  "contractName": "VotePortal",
  "sourceName": "contracts/votedapp.sol",
  "abi": [
    {
      "inputs": [],
      "stateMutability": "payable",
      "type": "constructor"
    },
    {
      "inputs": [],
      "name": "getTotalVotes",
      "outputs": [
        {
          "internalType": "uint256",
          "name": "",
          "type": "uint256"
        }
      ],
      "stateMutability": "view",
      "type": "function"
    },
    {
      "inputs": [],
      "name": "getVotesForA",
      "outputs": [
        {
          "internalType": "uint256",
          "name": "",
          "type": "uint256"
        }
      ],
      "stateMutability": "view",
      "type": "function"
    },
    {
      "inputs": [],
      "name": "getVotesForB",
      "outputs": [
        {
          "internalType": "uint256",
          "name": "",
          "type": "uint256"
        }
      ],
      "stateMutability": "view",
      "type": "function"
    },
    {
      "inputs": [],
      "name": "voteForA",
      "outputs": [],
      "stateMutability": "nonpayable",
      "type": "function"
    },
    {
      "inputs": [],
      "name": "voteForB",
      "outputs": [],
      "stateMutability": "nonpayable",
      "type": "function"
    }
  ],
  "bytecode": "0x608060405261004c6040518060400160405280601781526020017f436f6e74726163742069732066756e6374696f6e696e6700000000000000000081525061005160201b6101ec1760201c565b6101d4565b6100ed816040516024016100659190610152565b6040516020818303038152906040527f41304fac000000000000000000000000000000000000000000000000000000007bffffffffffffffffffffffffffffffffffffffffffffffffffffffff19166020820180517bffffffffffffffffffffffffffffffffffffffffffffffffffffffff83818316178352505050506100f060201b60201c565b50565b60008151905060006a636f6e736f6c652e6c6f679050602083016000808483855afa5050505050565b600061012482610174565b61012e818561017f565b935061013e818560208601610190565b610147816101c3565b840191505092915050565b6000602082019050818103600083015261016c8184610119565b905092915050565b600081519050919050565b600082825260208201905092915050565b60005b838110156101ae578082015181840152602081019050610193565b838111156101bd576000848401525b50505050565b6000601f19601f8301169050919050565b610631806101e36000396000f3fe608060405234801561001057600080fd5b50600436106100575760003560e01c8063181beaf91461005c5780634a16f7bd1461007a5780639a0e7d6614610098578063a98fe17e146100b6578063cdcf3e8e146100c0575b600080fd5b6100646100ca565b60405161007191906104bf565b60405180910390f35b6100826100d4565b60405161008f91906104bf565b60405180910390f35b6100a06100dd565b6040516100ad91906104bf565b60405180910390f35b6100be610138565b005b6100c8610192565b005b6000600154905090565b60008054905090565b6000806001546000546100f091906104f6565b90506101316040518060400160405280601481526020017f25642070656f706c65206861766520766f74656400000000000000000000000081525082610285565b8091505090565b600180600082825461014a91906104f6565b925050819055506101906040518060400160405280601981526020017f25732068617320766f74656420666f72206f7074696f6e20420000000000000081525033610321565b565b60016000808282546101a491906104f6565b925050819055506101ea6040518060400160405280601981526020017f25732068617320766f74656420666f72206f7074696f6e20410000000000000081525033610321565b565b61028281604051602401610200919061043d565b6040516020818303038152906040527f41304fac000000000000000000000000000000000000000000000000000000007bffffffffffffffffffffffffffffffffffffffffffffffffffffffff19166020820180517bffffffffffffffffffffffffffffffffffffffffffffffffffffffff83818316178352505050506103bd565b50565b61031d828260405160240161029b92919061048f565b6040516020818303038152906040527f9710a9d0000000000000000000000000000000000000000000000000000000007bffffffffffffffffffffffffffffffffffffffffffffffffffffffff19166020820180517bffffffffffffffffffffffffffffffffffffffffffffffffffffffff83818316178352505050506103bd565b5050565b6103b9828260405160240161033792919061045f565b6040516020818303038152906040527f319af333000000000000000000000000000000000000000000000000000000007bffffffffffffffffffffffffffffffffffffffffffffffffffffffff19166020820180517bffffffffffffffffffffffffffffffffffffffffffffffffffffffff83818316178352505050506103bd565b5050565b60008151905060006a636f6e736f6c652e6c6f679050602083016000808483855afa5050505050565b6103ef8161054c565b82525050565b6000610400826104da565b61040a81856104e5565b935061041a818560208601610588565b610423816105ea565b840191505092915050565b6104378161057e565b82525050565b6000602082019050818103600083015261045781846103f5565b905092915050565b6000604082019050818103600083015261047981856103f5565b905061048860208301846103e6565b9392505050565b600060408201905081810360008301526104a981856103f5565b90506104b8602083018461042e565b9392505050565b60006020820190506104d4600083018461042e565b92915050565b600081519050919050565b600082825260208201905092915050565b60006105018261057e565b915061050c8361057e565b9250827fffffffffffffffffffffffffffffffffffffffffffffffffffffffffffffffff03821115610541576105406105bb565b5b828201905092915050565b60006105578261055e565b9050919050565b600073ffffffffffffffffffffffffffffffffffffffff82169050919050565b6000819050919050565b60005b838110156105a657808201518184015260208101905061058b565b838111156105b5576000848401525b50505050565b7f4e487b7100000000000000000000000000000000000000000000000000000000600052601160045260246000fd5b6000601f19601f830116905091905056fea2646970667358221220ec50930c59ee07f9c1045cb078e8cd6955189793a570ed6722e4fa1ae184c82a64736f6c63430008000033",
  "linkReferences": {},
  "deployedLinkReferences": {}
}