{
  "_format": "hh-sol-artifact-1",
  "contractName": "VotePortal",
  "sourceName": "contracts/votedapp.sol",
  "abi": [
    {
      "inputs": [],
      "stateMutability": "payable",
      "type": "constructor"
    },
    {
      "inputs": [],
      "name": "getTotalVotes",
      "outputs": [
        {
          "internalType": "uint256",
          "name": "",
          "type": "uint256"
        }
      ],
      "stateMutability": "view",
      "type": "function"
    },
    {
      "inputs": [],
      "name": "voteForA",
      "outputs": [],
      "stateMutability": "nonpayable",
      "type": "function"
    },
    {
      "inputs": [],
      "name": "voteForB",
      "outputs": [],
      "stateMutability": "nonpayable",
      "type": "function"
    }
  ],
  "bytecode": "0x608060405261004c6040518060400160405280601781526020017f436f6e74726163742069732066756e6374696f6e696e6700000000000000000081525061005160201b6101871760201c565b6101d4565b6100ed816040516024016100659190610152565b6040516020818303038152906040527f41304fac000000000000000000000000000000000000000000000000000000007bffffffffffffffffffffffffffffffffffffffffffffffffffffffff19166020820180517bffffffffffffffffffffffffffffffffffffffffffffffffffffffff83818316178352505050506100f060201b60201c565b50565b60008151905060006a636f6e736f6c652e6c6f679050602083016000808483855afa5050505050565b600061012482610174565b61012e818561017f565b935061013e818560208601610190565b610147816101c3565b840191505092915050565b6000602082019050818103600083015261016c8184610119565b905092915050565b600081519050919050565b600082825260208201905092915050565b60005b838110156101ae578082015181840152602081019050610193565b838111156101bd576000848401525b50505050565b6000601f19601f8301169050919050565b6105cc806101e36000396000f3fe608060405234801561001057600080fd5b50600436106100415760003560e01c80639a0e7d6614610046578063a98fe17e14610064578063cdcf3e8e1461006e575b600080fd5b61004e610078565b60405161005b919061045a565b60405180910390f35b61006c6100d3565b005b61007661012d565b005b60008060015460005461008b9190610491565b90506100cc6040518060400160405280601481526020017f25642070656f706c65206861766520766f74656400000000000000000000000081525082610220565b8091505090565b60018060008282546100e59190610491565b9250508190555061012b6040518060400160405280601981526020017f25732068617320766f74656420666f72206f7074696f6e204200000000000000815250336102bc565b565b600160008082825461013f9190610491565b925050819055506101856040518060400160405280601981526020017f25732068617320766f74656420666f72206f7074696f6e204100000000000000815250336102bc565b565b61021d8160405160240161019b91906103d8565b6040516020818303038152906040527f41304fac000000000000000000000000000000000000000000000000000000007bffffffffffffffffffffffffffffffffffffffffffffffffffffffff19166020820180517bffffffffffffffffffffffffffffffffffffffffffffffffffffffff8381831617835250505050610358565b50565b6102b8828260405160240161023692919061042a565b6040516020818303038152906040527f9710a9d0000000000000000000000000000000000000000000000000000000007bffffffffffffffffffffffffffffffffffffffffffffffffffffffff19166020820180517bffffffffffffffffffffffffffffffffffffffffffffffffffffffff8381831617835250505050610358565b5050565b61035482826040516024016102d29291906103fa565b6040516020818303038152906040527f319af333000000000000000000000000000000000000000000000000000000007bffffffffffffffffffffffffffffffffffffffffffffffffffffffff19166020820180517bffffffffffffffffffffffffffffffffffffffffffffffffffffffff8381831617835250505050610358565b5050565b60008151905060006a636f6e736f6c652e6c6f679050602083016000808483855afa5050505050565b61038a816104e7565b82525050565b600061039b82610475565b6103a58185610480565b93506103b5818560208601610523565b6103be81610585565b840191505092915050565b6103d281610519565b82525050565b600060208201905081810360008301526103f28184610390565b905092915050565b600060408201905081810360008301526104148185610390565b90506104236020830184610381565b9392505050565b600060408201905081810360008301526104448185610390565b905061045360208301846103c9565b9392505050565b600060208201905061046f60008301846103c9565b92915050565b600081519050919050565b600082825260208201905092915050565b600061049c82610519565b91506104a783610519565b9250827fffffffffffffffffffffffffffffffffffffffffffffffffffffffffffffffff038211156104dc576104db610556565b5b828201905092915050565b60006104f2826104f9565b9050919050565b600073ffffffffffffffffffffffffffffffffffffffff82169050919050565b6000819050919050565b60005b83811015610541578082015181840152602081019050610526565b83811115610550576000848401525b50505050565b7f4e487b7100000000000000000000000000000000000000000000000000000000600052601160045260246000fd5b6000601f19601f830116905091905056fea26469706673582212207976e5a18aa82681cb15bf0e0f69d2041d0af4edf1fdb370c5833fbb542d9f2b64736f6c63430008000033",
  "linkReferences": {},
  "deployedLinkReferences": {}
}